:02000000C02B13
:1000060083160313DF01E0016F086002031D0D284C
:100016006E085F0203182128E301E4010030640240
:10002600031D1728A530630203181D28E30A0319C8
:0E003600E40A1128DF0A0319E00A072808006F
:100044000F30831203130805F100F03083166D0599
:10005400F0007008710483128800081488140000EA
:10006400881001308316EE000030EF0003200F30BB
:1000740083120805F20083166D08F000F00D70106D
:10008400F00D7010F00D7010F00D70107008720407
:100094008312880088140000881003308316EE0051
:0800A4000030EF00032008000A
:1000AC00831203137008F100F0010830FC00710892
:1000BC00F40C03186528FC0B5E28F10100340310C6
:1000CC006A28F40C0318F107F10CF00CFC0B6728F0
:0200DC0008001A
:1000DE0083120313F801F9011030FC00710DF80DB5
:1000EE00F90D7408F8027508031C750FF902031850
:1000FE0087287408F80775080318750FF907031099
:0A010E00F00DF10DFC0B7528080040
:100118000F30831203130805F100F03083166C05C5
:10012800F000700871048312880008108814000019
:10013800881001308316EE000030EF0003200F30E6
:1001480083120805F20083166C08F000F00D701099
:10015800F00D7010F00D7010F00D70107008720432
:100168008312880088140000881003308316EE007C
:080178000030EF000320080035
:10018000831603136C0884000008003A0319CF2873
:100190006C0884000008ED002220EC0AC02808004A
:1001A00083120313EF0183166708013C031CE42844
:1001B0000F306805F000F01770088312EF00700828
:1001C0008316EC008C20F0280F306805F000C0305A
:1001D000F00470088312EF0070088316EC008C2086
:0801E0006908EC00C0200800D2
:1001E800831203138601861CFE28061DFE28861D21
:1001F800FE28F728861C0529061D0529861D0529C0
:10020800792906128617861B0B2906130C2906174F
:10021800061B1029861211298616861C1829061D08
:100228001829861D1829212964308316EE0000300C
:10023800EF0003208312EE01792986128617861BA8
:100248002729061328290617061B2C2906122D29EB
:100258000616861C3429061D3429861D34293E2994
:1002680064308316EE000030EF0003200130831263
:10027800EE00792906138617861B4429061245299C
:100288000616061A492986124A298616861C5129F5
:10029800061D5129861D51295B2964308316EE00FD
:1002A8000030EF00032002308312EE007929861314
:1002B8000617061B6129861262298616861A662980
:1002C800061267290616861C6E29061D6E29861DCC
:1002D8006E29782964308316EE000030EF00032081
:1002E80003308312EE007929FE2886188729061D17
:1002F8008729861D872964308316EE000030EF00B9
:100308000320D001A6298312861C9729061997294C
:10031800861D972964308316EE000030EF00032015
:100328000130D000A6298312861CA629061DA629FD
:100338008619A62964308316EE000030EF000320EA
:100348000230D0008312861CAE29061DAE29861DF8
:10035800AE29AF29A6290330F0006E08F400562014
:100368002730F00783165008700784000008F00053
:0203780008007B
:10037A00013083160313EC008C200330EE000030AA
:06038A00EF000320080053
:0E0390008316031362088A00610882000800C9
:10039E0083160313EA0105306A020318DD296A0881
:1003AE006907840020308000EA0AD2296A086907AA
:1003BE0084008001EA036A086907EB000A30F40042
:1003CE00F5016708F0006808F1006F207808F0006A
:1003DE007908F1003030F00783166B08840070083E
:1003EE0080000A30F400F5016708F0006808F1009B
:1003FE006F2070088316E7007108E8000030710660
:10040E00031D0B2A00307006031D0E2A102AEA0364
:04041E00E2290800C7
:10042200013083160313E700E801C330E900D0204E
:10043200F430EE000130EF000320BD210130E7006F
:10044200E801BA30E900D0208312071E572A05308E
:10045200EC070318ED0AE8308316EE000330EF00D4
:10046200032083126C088316E70083126D0883163B
:10047200E800D130E900CF210230E7000330E80084
:10048200D130E900D0200230E7000A30E8003730EE
:10049200E900D0200130E7000D30E8003530E900F6
:1004A200D020E830EE000330EF0003208312871ED5
:1004B2008E2AE8308316EE000330EF00032032303C
:1004C20083126C07F0006D080318013EF1007008FA
:1004D200EC007108ED0070088316E7007108E8006F
:1004E200D130E900CF210230E7000330E800D130FB
:1004F200E900D0200230E7000A30E8004330E9008A
:10050200D0200130E7000D30E8004130E900D02072
:10051200E830EE000330EF0003208312071FC52AE4
:10052200E8308316EE000330EF0003201930831207
:100532006C07F0006D080318013EF1007008EC0032
:100542007108ED0070088316E7007108E800D130E9
:10055200E900CF210230E7000330E800D130E900A2
:10056200D0200230E7000A30E8003C30E900D02019
:100572000130E7000D30E8003330E900D020E830E8
:10058200EE000330EF0003208312871FFC2AE830BD
:100592008316EE000330EF0003200A3083126C074B
:1005A200F0006D080318013EF1007008EC007108BC
:1005B200ED0070088316E7007108E800D130E90009
:1005C200CF210230E7000330E800D130E900D0202B
:1005D2000230E7000A30E8002230E900D020013082
:1005E200E7000D30E8002030E900D020E830EE00CE
:0805F2000330EF0003200800B4
:1005FA00013083160313E700E8014830E900D020F0
:10060A00D801D90180305906F00080307002031DEC
:10061A00102B0430580203182A2BF4207008D70034
:10062A005808DA3E8400700880000230E700580853
:10063A00E8006230E900D020D80A0319D90AF43058
:10064A00EE000130EF000320072BBD210130E70047
:10065A00E8015430E900D020E830EE000330EF0022
:06066A000320BD21080081
:100670008316031388013430FC00F130FD00FD0BBC
:100680003F2BFC0B3F2B000000000230EC008C20C5
:100690002830EC008C200130EC008C200C30EC0079
:0A06A0008C200630EC008C200800CE
:1006AA00F9308316031387050C30831297000C3038
:0E06BA009D0007309204F9308316920008006C
:1006C800C8218A110A128000840AE10A0319E20A81
:0806D800F003031D642B080070
:1006E0005A30831603136507F30066080318013EAA
:1006F000F4000330F2007308F0007408F10072088F
:100700000319872BF00DF10D7010FF3E802BF43094
:100710007007F30071080318013E013EF4007308EE
:10072000F0007408F100F10CF00CF113711BF117DB
:10073000F10CF00CF113711BF11770088312950086
:10074000CF301705F50003307305F2007208F00092
:10075000F00D7010F00D7010F00D7010F00D7010A5
:100760007008750497000330FB000830FC007730F8
:10077000FD00FD0BB92BFC0BB92BFB0BB92B0800B3
:10078000B2245523E501E6017023A630FD00FD0BE0
:10079000C72B00000F30831686007F308105FF30A5
:1007A00087008801831287018601F0308316870055
:1007B0003823FD22BD21D030EE000730EF000320AA
:1007C00083120313861CEA2B061DEA2B861DEA2BD7
:1007D0001122E02BF4207008DE0070082A3A031D75
:1007E0000B2C0130E700E801A030E900D0205A309E
:1007F000E5000030E600702388308316EE001330E9
:10080000EF0003200130E700E801AD30E900D0201F
:10081000E501E601702383165E08233A031D2D2CA3
:100820000130E700E8016430E900D02083126C0851
:100830008316E70083126D088316E800D130E900C3
:10084000CF210230E7000730E800D130E900D020A6
:0E0850008830EE001330EF000320E02B2E2C3A
:1009640020308400443083120313F00034308316A3
:10097400E1000430E2006423A03084000D30F00074
:100984008E308316E1000430E20064236430840076
:100994000830F000A8308316E1000430E20064233C
:1009A400AD3084000D30F0009B308316E10004303C
:1009B400E20064236C3084000230F000B03083160F
:1009C400E1000430E2006423BA3084001630F00001
:0E09D40078308316E1000430E200642308004E
:040868003A340034EA
:0A086C00663469346C3473340034D0
:10087600313432343334343435343634373438342E
:0808860039342A3430342334E4
:04088E003A340034C4
:040892003A340034C0
:0A089600663469346C3473340034A6
:0A08A000663469346C34733400349C
:0408AA003A340034A8
:0A08AE00663469346C34733400348E
:1008B80045346E34743465347234203470346134A1
:0808C800733473343A34003438
:1008D000503461347334733477346F347234643425
:0C08E00020347334653474342E3400343A
:0408EC002A34003476
:1008F000423461346C3461346E34633465343A3478
:020900000034C1
:10090200573461346934743469346E3467342E3444
:0A0912002E3420343A342934003426
:10091C0044346F346F34723420346F347034653433
:0A092C006E3469346E346734003411
:1009360044346F346F347234203443344C344F347F
:0A094600533449344E344734003472
:10095000423461346C3461346E3463346534003451
:04096000003400342B
:02400E004A2F37
:00000001FF
